{
  "_format": "hh-sol-artifact-1",
  "contractName": "SvgStorageFacet",
  "sourceName": "contracts/Aavegotchi/facets/SvgStorageFacet.sol",
  "abi": [
    {
      "inputs": [
        {
          "internalType": "string",
          "name": "_svg",
          "type": "string"
        },
        {
          "components": [
            {
              "internalType": "bytes32",
              "name": "svgType",
              "type": "bytes32"
            },
            {
              "internalType": "uint256[]",
              "name": "sizes",
              "type": "uint256[]"
            }
          ],
          "internalType": "struct SvgStorageFacet.SvgTypeAndSizes[]",
          "name": "_typesAndSizes",
          "type": "tuple[]"
        }
      ],
      "name": "storeSvg",
      "outputs": [],
      "stateMutability": "nonpayable",
      "type": "function"
    }
  ],
  "bytecode": "0x608060405234801561001057600080fd5b506106bf806100206000396000f3fe608060405234801561001057600080fd5b506004361061002b5760003560e01c806336f2198314610030575b600080fd5b61004361003e366004610425565b610045565b005b61004d6101fd565b60006100598585610262565b90506000805b838110156101f4573685858381811061007457fe5b9050602002810190610086919061064c565b905060005b61009860208301836105e0565b90508110156101ea5760006100b060208401846105e0565b838181106100ba57fe5b85356000908152600360209081526040808320815160608101835273ffffffffffffffffffffffffffffffffffffffff808f16825261ffff808f168387019081529786029990990135898116948301948552835460018181018655948852959096209151919094018054965193518916760100000000000000000000000000000000000000000000027fffffffffffffffff0000ffffffffffffffffffffffffffffffffffffffffffff9490991674010000000000000000000000000000000000000000027fffffffffffffffffffff0000ffffffffffffffffffffffffffffffffffffffff929095167fffffffffffffffffffffffff0000000000000000000000000000000000000000909716969096171692909217169490941790915596909601955091909101905061008b565b505060010161005f565b50505050505050565b610205610401565b6004015473ffffffffffffffffffffffffffffffffffffffff163314610260576040517f08c379a000000000000000000000000000000000000000000000000000000000815260040161025790610526565b60405180910390fd5b565b6000616000821061029f576040517f08c379a000000000000000000000000000000000000000000000000000000000815260040161025790610583565b60408051808201909152600e81527f610000600e6000396100006000f3000000000000000000000000000000000000602082015260f883901b7fff0000000000000000000000000000000000000000000000000000000000000060f085901b8116908216600081901a602285015350808360018151811061031c57fe5b60200101907effffffffffffffffffffffffffffffffffffffffffffffffffffffffffffff1916908160001a9053508183600a8151811061035957fe5b60200101907effffffffffffffffffffffffffffffffffffffffffffffffffffffffffffff1916908160001a905350808360098151811061039657fe5b60200101907effffffffffffffffffffffffffffffffffffffffffffffffffffffffffffff1916908160001a90535060608387876040516020016103dc939291906104e4565b60405160208183030381529060405290508051602082016000f0979650505050505050565b7fc8fcad8db84d3cc18b4c41d551ea0ee66dd599cde068d998e57d5e09332c131c90565b6000806000806040858703121561043a578384fd5b843567ffffffffffffffff80821115610451578586fd5b818701915087601f830112610464578586fd5b813581811115610472578687fd5b60208981838601011115610484578788fd5b80840197508196508089013593508284111561049e578586fd5b838901935089601f8501126104b1578586fd5b83359150828211156104c1578586fd5b898182840286010111156104d3578586fd5b969995985091909501955093505050565b60008451815b8181101561050457602081880181015185830152016104ea565b818111156105125782828501525b508201838582379092019182525092915050565b60208082526022908201527f4c69624469616d6f6e643a204d75737420626520636f6e7472616374206f776e60408201527f6572000000000000000000000000000000000000000000000000000000000000606082015260800190565b6020808252602b908201527f53766753746f726167653a2045786365656465642032344b42206d617820636f60408201527f6e74726163742073697a65000000000000000000000000000000000000000000606082015260800190565b60008083357fffffffffffffffffffffffffffffffffffffffffffffffffffffffffffffffe1843603018112610614578283fd5b83018035915067ffffffffffffffff82111561062e578283fd5b602090810192508102360382131561064557600080fd5b9250929050565b600082357fffffffffffffffffffffffffffffffffffffffffffffffffffffffffffffffc183360301811261067f578182fd5b919091019291505056fea26469706673582212204f799e1652eb833a59d6ef5ee04005d07cb676c8b223a1be0e511857822cc25964736f6c63430007040033",
  "linkReferences": {},
  "deployedLinkReferences": {}
}