{
  "_format": "hh-sol-artifact-1",
  "contractName": "AavegotchiFacet",
  "sourceName": "contracts/Aavegotchi/facets/AavegotchiFacet.sol",
  "abi": [
    {
      "anonymous": false,
      "inputs": [
        {
          "indexed": true,
          "internalType": "address",
          "name": "_owner",
          "type": "address"
        },
        {
          "indexed": true,
          "internalType": "address",
          "name": "_approved",
          "type": "address"
        },
        {
          "indexed": true,
          "internalType": "uint256",
          "name": "_tokenId",
          "type": "uint256"
        }
      ],
      "name": "Approval",
      "type": "event"
    },
    {
      "anonymous": false,
      "inputs": [
        {
          "indexed": true,
          "internalType": "address",
          "name": "_owner",
          "type": "address"
        },
        {
          "indexed": true,
          "internalType": "address",
          "name": "_operator",
          "type": "address"
        },
        {
          "indexed": false,
          "internalType": "bool",
          "name": "_approved",
          "type": "bool"
        }
      ],
      "name": "ApprovalForAll",
      "type": "event"
    },
    {
      "anonymous": false,
      "inputs": [
        {
          "indexed": true,
          "internalType": "address",
          "name": "_from",
          "type": "address"
        },
        {
          "indexed": true,
          "internalType": "address",
          "name": "_to",
          "type": "address"
        },
        {
          "indexed": true,
          "internalType": "uint256",
          "name": "_tokenId",
          "type": "uint256"
        }
      ],
      "name": "Transfer",
      "type": "event"
    },
    {
      "anonymous": false,
      "inputs": [
        {
          "indexed": true,
          "internalType": "address",
          "name": "_operator",
          "type": "address"
        },
        {
          "indexed": true,
          "internalType": "address",
          "name": "_from",
          "type": "address"
        },
        {
          "indexed": true,
          "internalType": "address",
          "name": "_to",
          "type": "address"
        },
        {
          "indexed": false,
          "internalType": "uint256",
          "name": "_id",
          "type": "uint256"
        },
        {
          "indexed": false,
          "internalType": "uint256",
          "name": "_value",
          "type": "uint256"
        }
      ],
      "name": "TransferSingle",
      "type": "event"
    },
    {
      "inputs": [
        {
          "internalType": "string",
          "name": "_name",
          "type": "string"
        }
      ],
      "name": "aavegotchiNameAvailable",
      "outputs": [
        {
          "internalType": "bool",
          "name": "available_",
          "type": "bool"
        }
      ],
      "stateMutability": "view",
      "type": "function"
    },
    {
      "inputs": [
        {
          "components": [
            {
              "internalType": "address",
              "name": "collateralType",
              "type": "address"
            },
            {
              "internalType": "bytes3",
              "name": "primaryColor",
              "type": "bytes3"
            },
            {
              "internalType": "bytes3",
              "name": "secondaryColor",
              "type": "bytes3"
            },
            {
              "internalType": "bytes3",
              "name": "cheekColor",
              "type": "bytes3"
            },
            {
              "internalType": "uint8",
              "name": "svgId",
              "type": "uint8"
            },
            {
              "internalType": "uint8",
              "name": "eyeShapeSvgId",
              "type": "uint8"
            }
          ],
          "internalType": "struct LibAppStorage.AavegotchiCollateralTypeInput[]",
          "name": "_collateralTypes",
          "type": "tuple[]"
        }
      ],
      "name": "addCollateralTypes",
      "outputs": [],
      "stateMutability": "nonpayable",
      "type": "function"
    },
    {
      "inputs": [
        {
          "internalType": "address",
          "name": "_owner",
          "type": "address"
        }
      ],
      "name": "allAavegotchiIdsOfOwner",
      "outputs": [
        {
          "internalType": "uint256[]",
          "name": "tokenIds_",
          "type": "uint256[]"
        }
      ],
      "stateMutability": "view",
      "type": "function"
    },
    {
      "inputs": [
        {
          "internalType": "address",
          "name": "_owner",
          "type": "address"
        }
      ],
      "name": "allAavegotchisOfOwner",
      "outputs": [
        {
          "components": [
            {
              "internalType": "uint256",
              "name": "tokenId",
              "type": "uint256"
            },
            {
              "internalType": "string",
              "name": "name",
              "type": "string"
            },
            {
              "internalType": "address",
              "name": "owner",
              "type": "address"
            },
            {
              "internalType": "uint256",
              "name": "randomNumber",
              "type": "uint256"
            },
            {
              "internalType": "uint8",
              "name": "status",
              "type": "uint8"
            },
            {
              "internalType": "uint8[]",
              "name": "numericTraits",
              "type": "uint8[]"
            },
            {
              "internalType": "address",
              "name": "collateral",
              "type": "address"
            },
            {
              "internalType": "uint256",
              "name": "stakedAmount",
              "type": "uint256"
            }
          ],
          "internalType": "struct AavegotchiFacet.AavegotchiInfo[]",
          "name": "aavegotchiInfos_",
          "type": "tuple[]"
        }
      ],
      "stateMutability": "view",
      "type": "function"
    },
    {
      "inputs": [
        {
          "internalType": "address",
          "name": "_approved",
          "type": "address"
        },
        {
          "internalType": "uint256",
          "name": "_tokenId",
          "type": "uint256"
        }
      ],
      "name": "approve",
      "outputs": [],
      "stateMutability": "nonpayable",
      "type": "function"
    },
    {
      "inputs": [
        {
          "internalType": "address",
          "name": "_owner",
          "type": "address"
        }
      ],
      "name": "balanceOf",
      "outputs": [
        {
          "internalType": "uint256",
          "name": "balance_",
          "type": "uint256"
        }
      ],
      "stateMutability": "view",
      "type": "function"
    },
    {
      "inputs": [
        {
          "internalType": "uint256",
          "name": "_ghst",
          "type": "uint256"
        }
      ],
      "name": "buyPortals",
      "outputs": [],
      "stateMutability": "nonpayable",
      "type": "function"
    },
    {
      "inputs": [
        {
          "internalType": "uint256",
          "name": "_tokenId",
          "type": "uint256"
        },
        {
          "internalType": "uint256",
          "name": "_option",
          "type": "uint256"
        },
        {
          "internalType": "uint256",
          "name": "_stakeAmount",
          "type": "uint256"
        }
      ],
      "name": "claimAavegotchiFromPortal",
      "outputs": [],
      "stateMutability": "nonpayable",
      "type": "function"
    },
    {
      "inputs": [],
      "name": "collaterals",
      "outputs": [
        {
          "internalType": "address[]",
          "name": "collateralTypes_",
          "type": "address[]"
        }
      ],
      "stateMutability": "view",
      "type": "function"
    },
    {
      "inputs": [
        {
          "internalType": "uint256",
          "name": "_tokenId",
          "type": "uint256"
        }
      ],
      "name": "getAavegotchi",
      "outputs": [
        {
          "components": [
            {
              "internalType": "uint256",
              "name": "tokenId",
              "type": "uint256"
            },
            {
              "internalType": "string",
              "name": "name",
              "type": "string"
            },
            {
              "internalType": "address",
              "name": "owner",
              "type": "address"
            },
            {
              "internalType": "uint256",
              "name": "randomNumber",
              "type": "uint256"
            },
            {
              "internalType": "uint8",
              "name": "status",
              "type": "uint8"
            },
            {
              "internalType": "uint8[]",
              "name": "numericTraits",
              "type": "uint8[]"
            },
            {
              "internalType": "address",
              "name": "collateral",
              "type": "address"
            },
            {
              "internalType": "uint256",
              "name": "stakedAmount",
              "type": "uint256"
            }
          ],
          "internalType": "struct AavegotchiFacet.AavegotchiInfo",
          "name": "aavegotchiInfo_",
          "type": "tuple"
        }
      ],
      "stateMutability": "view",
      "type": "function"
    },
    {
      "inputs": [
        {
          "internalType": "uint256",
          "name": "_tokenId",
          "type": "uint256"
        }
      ],
      "name": "getAavegotchiSvg",
      "outputs": [
        {
          "internalType": "string",
          "name": "ag_",
          "type": "string"
        }
      ],
      "stateMutability": "view",
      "type": "function"
    },
    {
      "inputs": [
        {
          "internalType": "uint256",
          "name": "_tokenId",
          "type": "uint256"
        }
      ],
      "name": "getApproved",
      "outputs": [
        {
          "internalType": "address",
          "name": "approved_",
          "type": "address"
        }
      ],
      "stateMutability": "view",
      "type": "function"
    },
    {
      "inputs": [],
      "name": "ghstAddress",
      "outputs": [
        {
          "internalType": "address",
          "name": "contract_",
          "type": "address"
        }
      ],
      "stateMutability": "view",
      "type": "function"
    },
    {
      "inputs": [
        {
          "internalType": "address",
          "name": "_owner",
          "type": "address"
        },
        {
          "internalType": "address",
          "name": "_operator",
          "type": "address"
        }
      ],
      "name": "isApprovedForAll",
      "outputs": [
        {
          "internalType": "bool",
          "name": "approved_",
          "type": "bool"
        }
      ],
      "stateMutability": "view",
      "type": "function"
    },
    {
      "inputs": [
        {
          "internalType": "uint256",
          "name": "_tokenId",
          "type": "uint256"
        }
      ],
      "name": "openPortal",
      "outputs": [],
      "stateMutability": "nonpayable",
      "type": "function"
    },
    {
      "inputs": [
        {
          "internalType": "uint256",
          "name": "_tokenId",
          "type": "uint256"
        }
      ],
      "name": "ownerOf",
      "outputs": [
        {
          "internalType": "address",
          "name": "owner_",
          "type": "address"
        }
      ],
      "stateMutability": "view",
      "type": "function"
    },
    {
      "inputs": [
        {
          "internalType": "uint256",
          "name": "_tokenId",
          "type": "uint256"
        }
      ],
      "name": "portalAavegotchiTraits",
      "outputs": [
        {
          "components": [
            {
              "internalType": "uint256",
              "name": "randomNumber",
              "type": "uint256"
            },
            {
              "internalType": "uint8[6]",
              "name": "numericTraits",
              "type": "uint8[6]"
            },
            {
              "internalType": "address",
              "name": "collateralType",
              "type": "address"
            },
            {
              "internalType": "uint256",
              "name": "minimumStake",
              "type": "uint256"
            }
          ],
          "internalType": "struct AavegotchiFacet.PortalAavegotchiTraits[10]",
          "name": "portalAavegotchiTraits_",
          "type": "tuple[10]"
        }
      ],
      "stateMutability": "view",
      "type": "function"
    },
    {
      "inputs": [
        {
          "internalType": "uint256",
          "name": "_tokenId",
          "type": "uint256"
        }
      ],
      "name": "portalAavegotchisSVG",
      "outputs": [
        {
          "internalType": "string[10]",
          "name": "svg_",
          "type": "string[10]"
        }
      ],
      "stateMutability": "view",
      "type": "function"
    },
    {
      "inputs": [
        {
          "internalType": "address",
          "name": "_collateralType",
          "type": "address"
        }
      ],
      "name": "removeCollateralType",
      "outputs": [],
      "stateMutability": "nonpayable",
      "type": "function"
    },
    {
      "inputs": [
        {
          "internalType": "address",
          "name": "_from",
          "type": "address"
        },
        {
          "internalType": "address",
          "name": "_to",
          "type": "address"
        },
        {
          "internalType": "uint256",
          "name": "_tokenId",
          "type": "uint256"
        }
      ],
      "name": "safeTransferFrom",
      "outputs": [],
      "stateMutability": "nonpayable",
      "type": "function"
    },
    {
      "inputs": [
        {
          "internalType": "address",
          "name": "_from",
          "type": "address"
        },
        {
          "internalType": "address",
          "name": "_to",
          "type": "address"
        },
        {
          "internalType": "uint256",
          "name": "_tokenId",
          "type": "uint256"
        },
        {
          "internalType": "bytes",
          "name": "_data",
          "type": "bytes"
        }
      ],
      "name": "safeTransferFrom",
      "outputs": [],
      "stateMutability": "nonpayable",
      "type": "function"
    },
    {
      "inputs": [
        {
          "internalType": "uint256",
          "name": "_tokenId",
          "type": "uint256"
        },
        {
          "internalType": "string",
          "name": "_name",
          "type": "string"
        }
      ],
      "name": "setAavegotchiName",
      "outputs": [],
      "stateMutability": "nonpayable",
      "type": "function"
    },
    {
      "inputs": [
        {
          "internalType": "address",
          "name": "_operator",
          "type": "address"
        },
        {
          "internalType": "bool",
          "name": "_approved",
          "type": "bool"
        }
      ],
      "name": "setApprovalForAll",
      "outputs": [],
      "stateMutability": "nonpayable",
      "type": "function"
    },
    {
      "inputs": [
        {
          "internalType": "address",
          "name": "_owner",
          "type": "address"
        },
        {
          "internalType": "uint256",
          "name": "_index",
          "type": "uint256"
        }
      ],
      "name": "tokenOfOwnerByIndex",
      "outputs": [
        {
          "internalType": "uint256",
          "name": "tokenId_",
          "type": "uint256"
        }
      ],
      "stateMutability": "view",
      "type": "function"
    },
    {
      "inputs": [
        {
          "internalType": "address",
          "name": "_from",
          "type": "address"
        },
        {
          "internalType": "address",
          "name": "_to",
          "type": "address"
        },
        {
          "internalType": "uint256",
          "name": "_tokenId",
          "type": "uint256"
        }
      ],
      "name": "transferFrom",
      "outputs": [],
      "stateMutability": "nonpayable",
      "type": "function"
    }
  ],
  "bytecode": "0x608060405234801561001057600080fd5b506148d2806100206000396000f3fe608060405234801561001057600080fd5b50600436106101a35760003560e01c80636352211e116100ee578063b88d4fde11610097578063cba315bd11610071578063cba315bd146103a1578063e985e9c5146103b4578063ea7dac7f146103d4578063f1567e24146103e7576101a3565b8063b88d4fde14610368578063b930f0fc1461037b578063c57667e91461038e576101a3565b80639df5d98e116100c85780639df5d98e1461033a578063a22cb4651461034d578063a70135c214610360576101a3565b80636352211e146102f457806370a0823114610307578063945f4e241461031a576101a3565b806337c1d5691161015057806342842e0e1161012a57806342842e0e146102ae57806345a8acbe146102c1578063566651d0146102e1576101a3565b806337c1d569146102595780633878bcdc146102795780634113e5ca14610299576101a3565b806328e8c1931161018157806328e8c193146101f95780632f745c591461021957806333dc83b114610239576101a3565b8063081812fc146101a8578063095ea7b3146101d157806323b872dd146101e6575b600080fd5b6101bb6101b636600461384b565b6103fa565b6040516101c89190613c62565b60405180910390f35b6101e46101df3660046136dd565b610457565b005b6101e46101f43660046135d6565b61055b565b61020c61020736600461384b565b61056b565b6040516101c89190613eb4565b61022c6102273660046136dd565b61079c565b6040516101c89190613c4b565b61024c61024736600461358a565b610859565b6040516101c89190613e36565b61026c61026736600461384b565b61096e565b6040516101c89190614772565b61028c61028736600461384b565b610b67565b6040516101c89190613dca565b6102a1610c5b565b6040516101c89190613d70565b6101e46102bc3660046135d6565b610ccc565b6102d46102cf36600461358a565b610ded565b6040516101c89190613f46565b6101e46102ef36600461384b565b610e66565b6101bb61030236600461384b565b61117a565b61022c61031536600461358a565b6111a6565b61032d61032836600461384b565b6111ce565b6040516101c89190613f89565b6101e46103483660046138a8565b6112fa565b6101e461035b3660046136a7565b611635565b6101bb6116cf565b6101e4610376366004613611565b6116f4565b6101e4610389366004613706565b611813565b6101e461039c36600461384b565b611829565b6101e46103af36600461358a565b611962565b6103c76103c23660046135a4565b611b46565b6040516101c89190613f7e565b6101e46103e2366004613863565b611b81565b6103c76103f5366004613810565b611dc5565b6103f35460009063ffffffff16821061042e5760405162461bcd60e51b815260040161042590614145565b60405180910390fd5b5060009081526009602052604090205473ffffffffffffffffffffffffffffffffffffffff1690565b60008181526007602052604090206103eb015473ffffffffffffffffffffffffffffffffffffffff16338114806104be575073ffffffffffffffffffffffffffffffffffffffff8116600090815260086020908152604080832033845290915290205460ff165b6104da5760405162461bcd60e51b81526004016104259061442d565b60008281526009602052604080822080547fffffffffffffffffffffffff00000000000000000000000000000000000000001673ffffffffffffffffffffffffffffffffffffffff87811691821790925591518593918516917f8c5be1e5ebec7d5bd14f71427d1e84f3dd0314c0f7b2291e5b200ac8c7c3b92591a4505050565b610566838383611df2565b505050565b610573613202565b600082815260076020526040902060028101546103eb909101547801000000000000000000000000000000000000000000000000900460ff166001146105cb5760405162461bcd60e51b815260040161042590614110565b60005b600a81101561079557600082826040516020016105ec929190613c54565b6040516020818303038152906040528051906020012060001c9050808483600a811061061457fe5b60200201515260005b600681101561066857606460ff6008830284901c16068584600a811061063f57fe5b602002015160200151826006811061065357fe5b60ff909216602092909202015260010161061d565b5060008054819060f884901c8161067b57fe5b068154811061068657fe5b60009182526020909120015473ffffffffffffffffffffffffffffffffffffffff169050808584600a81106106b757fe5b60200201516040019073ffffffffffffffffffffffffffffffffffffffff16908173ffffffffffffffffffffffffffffffffffffffff16815250508073ffffffffffffffffffffffffffffffffffffffff1663313ce5676040518163ffffffff1660e01b815260040160206040518083038186803b15801561073857600080fd5b505afa15801561074c573d6000803e3d6000fd5b505050506040513d601f19601f8201168201806040525081019061077091906138d3565b60ff16600a0a8584600a811061078257fe5b60200201516060015250506001016105ce565b5050919050565b73ffffffffffffffffffffffffffffffffffffffff82166000908152600660205260408120548083106107e15760405162461bcd60e51b81526004016104259061448a565b73ffffffffffffffffffffffffffffffffffffffff84166108145760405162461bcd60e51b8152600401610425906146b8565b73ffffffffffffffffffffffffffffffffffffffff8416600090815260066020526040902080548490811061084557fe5b906000526020600020015491505092915050565b73ffffffffffffffffffffffffffffffffffffffff811660009081526006602090815260409182902080548351818402810184019094528084526060938493909291908301828280156108cb57602002820191906000526020600020905b8154815260200190600101908083116108b7575b50505050509050805167ffffffffffffffff811180156108ea57600080fd5b5060405190808252806020026020018201604052801561092457816020015b610911613230565b8152602001906001900390816109095790505b50915060005b81518110156107955761094f82828151811061094257fe5b602002602001015161096e565b83828151811061095b57fe5b602090810291909101015260010161092a565b610976613230565b81815260008281526007602090815260409182902080548351601f60027fffffffffffffffffffffffffffffffffffffffffffffffffffffffffffffffff61010060018616150201909316929092049182018490048402810184019094528084529091830182828015610a2a5780601f106109ff57610100808354040283529160200191610a2a565b820191906000526020600020905b815481529060010190602001808311610a0d57829003601f168201915b50505050506020828101919091526000838152600780835260408083206103eb81015473ffffffffffffffffffffffffffffffffffffffff811683880152600282015460608801527801000000000000000000000000000000000000000000000000900460ff16608087015292869052908352600190910180548251818502810185019093528083529192909190830182828015610b0557602002820191906000526020600020906000905b825461010083900a900460ff16815260206001928301818104948501949093039092029101808411610ad65790505b505050505060a0820152600082815260076020818152604083206103ec81015473ffffffffffffffffffffffffffffffffffffffff1660c086015292859052526103ed01546fffffffffffffffffffffffffffffffff1660e08201525b919050565b610b6f6132a4565b60008281526007602052604090206103eb01547801000000000000000000000000000000000000000000000000900460ff16600114610bc05760405162461bcd60e51b815260040161042590614110565b610bc8613202565b610bd18361056b565b905060005b600a8110156107955760008282600a8110610bed57fe5b6020020151604001519050610c006132cc565b8383600a8110610c0c57fe5b6020020151602001519050610c218282612343565b604051602001610c319190613bb9565b6040516020818303038152906040528584600a8110610c4c57fe5b60200201525050600101610bd6565b606060008001805480602002602001604051908101604052809291908181526020018280548015610cc257602002820191906000526020600020905b815473ffffffffffffffffffffffffffffffffffffffff168152600190910190602001808311610c97575b5050505050905090565b610cd7838383611df2565b813b8015610de7576040517f150b7a0200000000000000000000000000000000000000000000000000000000815273ffffffffffffffffffffffffffffffffffffffff84169063150b7a0290610d3590339088908790600401613d30565b602060405180830381600087803b158015610d4f57600080fd5b505af1158015610d63573d6000803e3d6000fd5b505050506040513d601f19601f82011682018060405250810190610d8791906137d0565b7fffffffff00000000000000000000000000000000000000000000000000000000167f150b7a020000000000000000000000000000000000000000000000000000000014610de75760405162461bcd60e51b815260040161042590613ff9565b50505050565b73ffffffffffffffffffffffffffffffffffffffff8116600090815260066020908152604091829020805483518184028101840190945280845260609392830182828015610e5a57602002820191906000526020600020905b815481526020019060010190808311610e46575b50505050509050919050565b68056bc75e2d63100000811015610e8f5760405162461bcd60e51b815260040161042590614715565b60005b68056bc75e2d631000008204811015610ff9576103f380547fffffffffffffffffffffffffffffffffffffffffffffffffffffffff000000008116600163ffffffff928316818101841692909217909355336000818152600660209081526040808320805497880181558352818320870185905584835260079091528082206103eb0180547fffffffffffffffffffffffff00000000000000000000000000000000000000001684177fffffffffffffffff00000000ffffffffffffffffffffffffffffffffffffffff16740100000000000000000000000000000000000000009688169690960295909517909455925191939284927fddf252ad1be2c89b69c2b068fc378daa952ba7f163c4a11628f55a4df523b3ef908290a4604051339060009082907fc3d58168c5ae7397731d063d5bbf3d657854427343f4c083240f7aacaa2d0f6290610fe7908790600190613c54565b60405180910390a45050600101610e92565b506103f3546040517f23b872dd00000000000000000000000000000000000000000000000000000000815268056bc75e2d631000008306830391600a83049164010000000090910473ffffffffffffffffffffffffffffffffffffffff16906323b872dd906110719033906000908690600401613c83565b602060405180830381600087803b15801561108b57600080fd5b505af115801561109f573d6000803e3d6000fd5b505050506040513d601f19601f820116820180604052508101906110c391906137b4565b506103f3546040517f23b872dd00000000000000000000000000000000000000000000000000000000815264010000000090910473ffffffffffffffffffffffffffffffffffffffff16906323b872dd90611128903390309086880390600401613c83565b602060405180830381600087803b15801561114257600080fd5b505af1158015611156573d6000803e3d6000fd5b505050506040513d601f19601f82011682018060405250810190610de791906137b4565b60009081526007602052604090206103eb015473ffffffffffffffffffffffffffffffffffffffff1690565b73ffffffffffffffffffffffffffffffffffffffff1660009081526006602052604090205490565b60008181526007602052604090206103eb015460609073ffffffffffffffffffffffffffffffffffffffff166112165760405162461bcd60e51b815260040161042590613f9c565b60008281526007602052604090206103eb01546060907801000000000000000000000000000000000000000000000000900460ff16806112825761127b7f61617665676f74636869000000000000000000000000000000000000000000006000612885565b91506112d1565b60ff8116600114156112b95761127b7f61617665676f74636869000000000000000000000000000000000000000000006001612885565b60ff8116600214156112d1576112ce846128b7565b91505b816040516020016112e29190613bb9565b60405160208183030381529060405292505050919050565b60008381526007602052604090206103eb01547801000000000000000000000000000000000000000000000000900460ff1660011461134b5760405162461bcd60e51b815260040161042590614110565b60008381526007602052604090206103eb015473ffffffffffffffffffffffffffffffffffffffff1633146113925760405162461bcd60e51b8152600401610425906142f0565b60008381526007602090815260408083206002015490516113b592869101613c54565b604080517fffffffffffffffffffffffffffffffffffffffffffffffffffffffffffffffe081840301815291815281516020928301206000878152600790935290822060020181905591505b60068110156114645760008581526007602090815260408220600190810180548083018255908452928290209183049091018054601f9093166101000a60ff8181021990941660646008870288901c861606909416029290921790915501611401565b5060008054819060f884901c8161147757fe5b068154811061148257fe5b60009182526020808320909101548783526007825260408084206103ec810180547fffffffffffffffffffffffff00000000000000000000000000000000000000001673ffffffffffffffffffffffffffffffffffffffff90941693841790556103eb01805478020000000000000000000000000000000000000000000000007fffffffffffffff00ffffffffffffffffffffffffffffffffffffffffffffffff90911617905580517f313ce5670000000000000000000000000000000000000000000000000000000081529051919450849263313ce56792600480840193829003018186803b15801561157557600080fd5b505afa158015611589573d6000803e3d6000fd5b505050506040513d601f19601f820116820180604052508101906115ad91906138d3565b60ff16600a0a9050808410156115d55760405162461bcd60e51b8152600401610425906145a1565b60008681526007602052604090206103ed0180547fffffffffffffffffffffffffffffffff00000000000000000000000000000000166fffffffffffffffffffffffffffffffff861617905561162d82333087612966565b505050505050565b33600081815260086020908152604080832073ffffffffffffffffffffffffffffffffffffffff871680855292529182902080547fffffffffffffffffffffffffffffffffffffffffffffffffffffffffffffff001685151517905590519091907f17307eab39ab6107e8899845ad3d59bd9653f200f220920489ca2b5937696c31906116c3908590613f7e565b60405180910390a35050565b6103f354640100000000900473ffffffffffffffffffffffffffffffffffffffff1690565b6116ff858585611df2565b833b801561162d576040517f150b7a0200000000000000000000000000000000000000000000000000000000815273ffffffffffffffffffffffffffffffffffffffff86169063150b7a02906117619033908a90899089908990600401613cb4565b602060405180830381600087803b15801561177b57600080fd5b505af115801561178f573d6000803e3d6000fd5b505050506040513d601f19601f820116820180604052508101906117b391906137d0565b7fffffffff00000000000000000000000000000000000000000000000000000000167f150b7a02000000000000000000000000000000000000000000000000000000001461162d5760405162461bcd60e51b815260040161042590613ff9565b61181b612b01565b611826600082612b43565b50565b60008181526007602052604090206103eb01547801000000000000000000000000000000000000000000000000900460ff16156118785760405162461bcd60e51b8152600401610425906140b3565b60008181526007602052604090206103eb015473ffffffffffffffffffffffffffffffffffffffff1633146118bf5760405162461bcd60e51b815260040161042590614373565b426040516020016118d09190613c4b565b604080517fffffffffffffffffffffffffffffffffffffffffffffffffffffffffffffffe081840301815291815281516020928301206000938452600790925290912060028101919091556103eb0180547fffffffffffffff00ffffffffffffffffffffffffffffffffffffffffffffffff167801000000000000000000000000000000000000000000000000179055565b61196a612b01565b73ffffffffffffffffffffffffffffffffffffffff8116600090815260026020526040902054806119ad5760405162461bcd60e51b8152600401610425906144e7565b6000547fffffffffffffffffffffffffffffffffffffffffffffffffffffffffffffffff9182019101808214611a855760008060000182815481106119ee57fe5b6000918252602082200154815473ffffffffffffffffffffffffffffffffffffffff909116925082919085908110611a2257fe5b600091825260208083209190910180547fffffffffffffffffffffffff00000000000000000000000000000000000000001673ffffffffffffffffffffffffffffffffffffffff9485161790559290911681526002909152604090206001830190555b6000805480611a9057fe5b6000828152602080822083017fffffffffffffffffffffffffffffffffffffffffffffffffffffffffffffffff90810180547fffffffffffffffffffffffff000000000000000000000000000000000000000016905590920190925573ffffffffffffffffffffffffffffffffffffffff94909416815260028452604080822082905560019094529290922080547fffffffffffffffffffffffffffffffffffffffffff00000000000000000000001690555050565b73ffffffffffffffffffffffffffffffffffffffff918216600090815260086020908152604080832093909416825291909152205460ff1690565b6000815111611ba25760405162461bcd60e51b81526004016104259061465b565b601a815110611bc35760405162461bcd60e51b815260040161042590614544565b604051600a90611bd4908390613a47565b9081526040519081900360200190205460ff1615611c045760405162461bcd60e51b8152600401610425906145fe565b60008281526007602052604090206103eb015473ffffffffffffffffffffffffffffffffffffffff163314611c4b5760405162461bcd60e51b8152600401610425906143d0565b60008281526007602090815260409182902080548351601f60027fffffffffffffffffffffffffffffffffffffffffffffffffffffffffffffffff610100600186161502019093169290920491820184900484028101840190945280845260609392830182828015611cfe5780601f10611cd357610100808354040283529160200191611cfe565b820191906000526020600020905b815481529060010190602001808311611ce157829003601f168201915b50505050509050600081511115611d5657604051600a90611d20908390613a47565b90815260405190819003602001902080547fffffffffffffffffffffffffffffffffffffffffffffffffffffffffffffff001690555b60016000600a0183604051611d6b9190613a47565b908152604080516020928190038301902080547fffffffffffffffffffffffffffffffffffffffffffffffffffffffffffffff001693151593909317909255600085815260078252919091208351610de7928501906132ea565b600080600a0182604051611dd99190613a47565b9081526040519081900360200190205460ff1692915050565b73ffffffffffffffffffffffffffffffffffffffff8216611e255760405162461bcd60e51b81526004016104259061417c565b60008181526007602052604090206103eb015473ffffffffffffffffffffffffffffffffffffffff81169074010000000000000000000000000000000000000000900463ffffffff1681611e8b5760405162461bcd60e51b8152600401610425906141d9565b3373ffffffffffffffffffffffffffffffffffffffff83161480611edf575073ffffffffffffffffffffffffffffffffffffffff8216600090815260086020908152604080832033845290915290205460ff165b80611f0d575060008381526009602052604090205473ffffffffffffffffffffffffffffffffffffffff1633145b611f295760405162461bcd60e51b815260040161042590614236565b8173ffffffffffffffffffffffffffffffffffffffff168573ffffffffffffffffffffffffffffffffffffffff1614611f745760405162461bcd60e51b815260040161042590614293565b60008381526007602090815260408083206103eb01805473ffffffffffffffffffffffffffffffffffffffff808a167fffffffffffffffffffffffff000000000000000000000000000000000000000090921682178084559186526006808652848720805463ffffffff1674010000000000000000000000000000000000000000027fffffffffffffffff00000000ffffffffffffffffffffffffffffffffffffffff90941693909317909355918452805460018101825590855292842090920186905590871682529020547fffffffffffffffffffffffffffffffffffffffffffffffffffffffffffffffff0181811461215c5773ffffffffffffffffffffffffffffffffffffffff8616600090815260066020526040812080548390811061209a57fe5b9060005260206000200154905080600060060160008973ffffffffffffffffffffffffffffffffffffffff1673ffffffffffffffffffffffffffffffffffffffff16815260200190815260200160002084815481106120f557fe5b60009182526020808320919091019290925591825260079052604090206103eb0180547fffffffffffffffff00000000ffffffffffffffffffffffffffffffffffffffff167401000000000000000000000000000000000000000063ffffffff8516021790555b73ffffffffffffffffffffffffffffffffffffffff8616600090815260066020526040902080548061218a57fe5b6000828152602080822083017fffffffffffffffffffffffffffffffffffffffffffffffffffffffffffffffff90810183905590920190925585825260099052604090205473ffffffffffffffffffffffffffffffffffffffff16156122615760008481526009602052604080822080547fffffffffffffffffffffffff00000000000000000000000000000000000000001690555185919073ffffffffffffffffffffffffffffffffffffffff8616907f8c5be1e5ebec7d5bd14f71427d1e84f3dd0314c0f7b2291e5b200ac8c7c3b925908390a45b838573ffffffffffffffffffffffffffffffffffffffff168773ffffffffffffffffffffffffffffffffffffffff167fddf252ad1be2c89b69c2b068fc378daa952ba7f163c4a11628f55a4df523b3ef60405160405180910390a48473ffffffffffffffffffffffffffffffffffffffff168673ffffffffffffffffffffffffffffffffffffffff163373ffffffffffffffffffffffffffffffffffffffff167fc3d58168c5ae7397731d063d5bbf3d657854427343f4c083240f7aacaa2d0f62876001604051612333929190613c54565b60405180910390a4505050505050565b73ffffffffffffffffffffffffffffffffffffffff8216600090815260016020526040902054606090819061237a9060e81b612e37565b73ffffffffffffffffffffffffffffffffffffffff85166000908152600160205260409020549091506060906123b9906301000000900460e81b612e37565b73ffffffffffffffffffffffffffffffffffffffff86166000908152600160205260409020549091506060906123fb906601000000000000900460e81b612e37565b90506124287f61617665676f74636869000000000000000000000000000000000000000000006002612885565b73ffffffffffffffffffffffffffffffffffffffff871660009081526001602052604090205490945060609061248f907f636f6c6c61746572616c73000000000000000000000000000000000000000000906901000000000000000000900460ff16612885565b608087015190915060606124a1613376565b5060408051610240810182526000808252600160208301526002928201929092526005606082015260076080820152600a60a0820152600f60c0820152601460e08201526019610100820152602a610120820152603a610140820152604b610160820152605061018082015260556101a0820152605a6101c0820152605d6101e0820152605f6102008201526062610220820152905b60118110156125bc5781816012811061254c57fe5b602002015160ff168460ff161015801561257e575081816001016012811061257057fe5b602002015160ff168460ff16105b156125b4576125ad7f657965536861706573000000000000000000000000000000000000000000000082612885565b92506125bc565b600101612537565b5081516126285773ffffffffffffffffffffffffffffffffffffffff8a16600090815260016020526040902054612625907f6579655368617065730000000000000000000000000000000000000000000000906a0100000000000000000000900460ff16612885565b91505b60a089015192506060612639613395565b5060408051610100810182526000815260026020820152600a9181019190915260196060820152604b6080820152605a60a0820152606260c0820152606460e08201526126846133b4565b506040805161012081018252600660e082018181527f46463030464600000000000000000000000000000000000000000000000000006101008401528252825180840184528181527f303036344646000000000000000000000000000000000000000000000000000060208281019190915280840191909152835180850185528281527f35443234424600000000000000000000000000000000000000000000000000008183015283850152606083018d9052835180850185528281527f3336383138450000000000000000000000000000000000000000000000000000818301526080840152835180850185528281527f45413843323700000000000000000000000000000000000000000000000000008183015260a084015283518085019094529083527f31453636314500000000000000000000000000000000000000000000000000009083015260c081019190915260005b6007811015612846578281600881106127ef57fe5b602002015160ff168760ff1610158015612821575082816001016008811061281357fe5b602002015160ff168760ff16105b1561283e5781816007811061283257fe5b60200201519350612846565b6001016127da565b50898989858e8b8a6040516020016128649796959493929190613a63565b6040516020818303038152906040529a505050505050505050505092915050565b60606000612891612fa6565b600085815260038201602052604090209091506128ae8185612fab565b95945050505050565b60606128c16132cc565b60005b600681101561292b5760008481526007602052604090206001018054829081106128ea57fe5b90600052602060002090602091828204019190069054906101000a900460ff1682826006811061291657fe5b60ff90921660209290920201526001016128c4565b5060008381526007602052604090206103ec015461295f9073ffffffffffffffffffffffffffffffffffffffff1682612343565b9392505050565b833b806129a45760405162461bcd60e51b81526004018080602001828103825260298152602001806147f36029913960400191505060405180910390fd5b6040805173ffffffffffffffffffffffffffffffffffffffff86811660248301528581166044830152606480830186905283518084039091018152608490920183526020820180517bffffffffffffffffffffffffffffffffffffffffffffffffffffffff167f23b872dd0000000000000000000000000000000000000000000000000000000017815292518251600094606094938b169392918291908083835b60208310612a8257805182527fffffffffffffffffffffffffffffffffffffffffffffffffffffffffffffffe09092019160209182019101612a45565b6001836020036101000a0380198251168184511680821785525050505050509050019150506000604051808303816000865af19150503d8060008114612ae4576040519150601f19603f3d011682016040523d82523d6000602084013e612ae9565b606091505b5091509150612af882826130b3565b50505050505050565b612b096131de565b6004015473ffffffffffffffffffffffffffffffffffffffff163314612b415760405162461bcd60e51b815260040161042590614056565b565b60005b8151811015610566576000828281518110612b5d57fe5b602090810291909101810151518554600181018755600087815283812090910180547fffffffffffffffffffffffff00000000000000000000000000000000000000001673ffffffffffffffffffffffffffffffffffffffff841690811790915587549082526002880190935260409020919091558351909150839083908110612be357fe5b6020026020010151602001518460010160008373ffffffffffffffffffffffffffffffffffffffff1673ffffffffffffffffffffffffffffffffffffffff16815260200190815260200160002060000160006101000a81548162ffffff021916908360e81c0217905550828281518110612c5957fe5b6020026020010151604001518460010160008373ffffffffffffffffffffffffffffffffffffffff1673ffffffffffffffffffffffffffffffffffffffff16815260200190815260200160002060000160036101000a81548162ffffff021916908360e81c0217905550828281518110612ccf57fe5b6020026020010151606001518460010160008373ffffffffffffffffffffffffffffffffffffffff1673ffffffffffffffffffffffffffffffffffffffff16815260200190815260200160002060000160066101000a81548162ffffff021916908360e81c0217905550828281518110612d4557fe5b6020026020010151608001518460010160008373ffffffffffffffffffffffffffffffffffffffff1673ffffffffffffffffffffffffffffffffffffffff16815260200190815260200160002060000160096101000a81548160ff021916908360ff160217905550828281518110612db957fe5b60209081029190910181015160a0015173ffffffffffffffffffffffffffffffffffffffff9092166000908152600180870190925260409020805460ff9093166a0100000000000000000000027fffffffffffffffffffffffffffffffffffffffffff00ffffffffffffffffffff9093169290921790915501612b46565b604080518082018252601081527f30313233343536373839414243444546000000000000000000000000000000006020820152815160068082528184019093526060928391906020820181803683370190505090506000805b6003811015612f9c57836004878360038110612ea857fe5b1a60f81b7effffffffffffffffffffffffffffffffffffffffffffffffffffffffffffff1916901c60f81c60ff1681518110612ee057fe5b602001015160f81c60f81b838381518110612ef757fe5b60200101907effffffffffffffffffffffffffffffffffffffffffffffffffffffffffffff1916908160001a90535060019091019083868260038110612f3957fe5b825191901a600f16908110612f4a57fe5b602001015160f81c60f81b838381518110612f6157fe5b60200101907effffffffffffffffffffffffffffffffffffffffffffffffffffffffffffff1916908160001a90535060019182019101612e90565b5090949350505050565b600090565b81546060908210612fed5760405162461bcd60e51b81526004018080602001828103825260258152602001806148786025913960400191505060405180910390fd5b6000838381548110612ffb57fe5b6000918252602090912001805490915073ffffffffffffffffffffffffffffffffffffffff81169061ffff7601000000000000000000000000000000000000000000008204811691740100000000000000000000000000000000000000009004168167ffffffffffffffff8111801561307357600080fd5b506040519080825280601f01601f19166020018201604052801561309e576020820181803683370190505b509450818160208701853c5050505092915050565b811561311757805115613112578080602001905160208110156130d557600080fd5b50516131125760405162461bcd60e51b815260040180806020018281038252603181526020018061481c6031913960400191505060405180910390fd5b6131da565b8051156131a3578060405162461bcd60e51b81526004018080602001828103825283818151815260200191508051906020019080838360005b83811015613168578181015183820152602001613150565b50505050905090810190601f1680156131955780820380516001836020036101000a031916815260200191505b509250505060405180910390fd5b60405162461bcd60e51b815260040180806020018281038252602b81526020018061484d602b913960400191505060405180910390fd5b5050565b7fc8fcad8db84d3cc18b4c41d551ea0ee66dd599cde068d998e57d5e09332c131c90565b604051806101400160405280600a905b61321a6133ce565b8152602001906001900390816132125790505090565b6040518061010001604052806000815260200160608152602001600073ffffffffffffffffffffffffffffffffffffffff16815260200160008152602001600060ff16815260200160608152602001600073ffffffffffffffffffffffffffffffffffffffff168152602001600081525090565b604051806101400160405280600a905b60608152602001906001900390816132b45790505090565b6040518060c001604052806006906020820280368337509192915050565b828054600181600116156101000203166002900490600052602060002090601f0160209004810192826133205760008555613366565b82601f1061333957805160ff1916838001178555613366565b82800160010185558215613366579182015b8281111561336657825182559160200191906001019061334b565b506133729291506133fc565b5090565b6040518061024001604052806012906020820280368337509192915050565b6040518061010001604052806008906020820280368337509192915050565b6040805160e08101909152606081526006602082016132b4565b6040518060800160405280600081526020016133e86132cc565b815260006020820181905260409091015290565b5b8082111561337257600081556001016133fd565b803573ffffffffffffffffffffffffffffffffffffffff81168114610b6257600080fd5b80357fffffff000000000000000000000000000000000000000000000000000000000081168114610b6257600080fd5b600082601f830112613475578081fd5b813567ffffffffffffffff81111561348957fe5b6134ba60207fffffffffffffffffffffffffffffffffffffffffffffffffffffffffffffffe0601f84011601614785565b91508082528360208285010111156134d157600080fd5b8060208401602084013760009082016020015292915050565b600060c082840312156134fb578081fd5b60405160c0810181811067ffffffffffffffff8211171561351857fe5b60405290508061352783613411565b815261353560208401613435565b602082015261354660408401613435565b604082015261355760608401613435565b6060820152608083013561356a816147e3565b608082015260a083013561357d816147e3565b60a0919091015292915050565b60006020828403121561359b578081fd5b61295f82613411565b600080604083850312156135b6578081fd5b6135bf83613411565b91506135cd60208401613411565b90509250929050565b6000806000606084860312156135ea578081fd5b6135f384613411565b925061360160208501613411565b9150604084013590509250925092565b600080600080600060808688031215613628578081fd5b61363186613411565b945061363f60208701613411565b935060408601359250606086013567ffffffffffffffff80821115613662578283fd5b818801915088601f830112613675578283fd5b813581811115613683578384fd5b896020828501011115613694578384fd5b9699959850939650602001949392505050565b600080604083850312156136b9578182fd5b6136c283613411565b915060208301356136d2816147d5565b809150509250929050565b600080604083850312156136ef578182fd5b6136f883613411565b946020939093013593505050565b60006020808385031215613718578182fd5b823567ffffffffffffffff8082111561372f578384fd5b818501915085601f830112613742578384fd5b81358181111561374e57fe5b61375b8485830201614785565b818152848101925083850160c0808402860187018a101561377a578788fd5b8795505b838610156137a6576137908a836134ea565b855260019590950194938601939081019061377e565b509098975050505050505050565b6000602082840312156137c5578081fd5b815161295f816147d5565b6000602082840312156137e1578081fd5b81517fffffffff000000000000000000000000000000000000000000000000000000008116811461295f578182fd5b600060208284031215613821578081fd5b813567ffffffffffffffff811115613837578182fd5b61384384828501613465565b949350505050565b60006020828403121561385c578081fd5b5035919050565b60008060408385031215613875578182fd5b82359150602083013567ffffffffffffffff811115613892578182fd5b61389e85828601613465565b9150509250929050565b6000806000606084860312156138bc578081fd5b505081359360208301359350604090920135919050565b6000602082840312156138e4578081fd5b815161295f816147e3565b73ffffffffffffffffffffffffffffffffffffffff169052565b6000815180845260208085019450808401835b8381101561393b57815160ff168752958201959082019060010161391c565b509495945050505050565b600081516139588185602086016147a9565b9290920192915050565b6000815180845261397a8160208601602086016147a9565b601f017fffffffffffffffffffffffffffffffffffffffffffffffffffffffffffffffe0169290920160200192915050565b60006101008251845260208301518160208601526139cc82860182613962565b91505073ffffffffffffffffffffffffffffffffffffffff60408401511660408501526060830151606085015260ff608084015116608085015260a083015184820360a0860152613a1d8282613909565b91505060c0830151613a3260c08601826138ef565b5060e083015160e08501528091505092915050565b60008251613a598184602087016147a9565b9190910192915050565b60007f3c7374796c653e2e7072696d6172797b66696c6c3a230000000000000000000082528851613a9b816016850160208d016147a9565b7f3b7d2e7365636f6e646172797b66696c6c3a23000000000000000000000000006016918401918201528851613ad8816029840160208d016147a9565b7f3b7d2e636865656b7b66696c6c3a230000000000000000000000000000000000602992909101918201528751613b16816038840160208c016147a9565b7f3b7d2e657965436f6c6f727b66696c6c3a230000000000000000000000000000603892909101918201528651613b5481604a840160208b016147a9565b7f3b7d3c2f7374796c653e00000000000000000000000000000000000000000000604a92909101918201528551613b92816054840160208a016147a9565b613baa613ba460548385010188613946565b86613946565b9b9a5050505050505050505050565b60007f3c73766720786d6c6e733d22687474703a2f2f7777772e77332e6f72672f323082527f30302f737667222076696577426f783d22302030203634203634223e0000000060208301528251613c1781603c8501602087016147a9565b7f3c2f7376673e0000000000000000000000000000000000000000000000000000603c939091019283015250604201919050565b90815260200190565b918252602082015260400190565b73ffffffffffffffffffffffffffffffffffffffff91909116815260200190565b73ffffffffffffffffffffffffffffffffffffffff9384168152919092166020820152604081019190915260600190565b600073ffffffffffffffffffffffffffffffffffffffff808816835280871660208401525084604083015260806060830152826080830152828460a084013781830160a090810191909152601f9092017fffffffffffffffffffffffffffffffffffffffffffffffffffffffffffffffe0160101949350505050565b73ffffffffffffffffffffffffffffffffffffffff9384168152919092166020820152604081019190915260806060820181905260009082015260a00190565b6020808252825182820181905260009190848201906040850190845b81811015613dbe57835173ffffffffffffffffffffffffffffffffffffffff1683529284019291840191600101613d8c565b50909695505050505050565b6020808252600090610160830183820185845b600a811015613e2a577fffffffffffffffffffffffffffffffffffffffffffffffffffffffffffffffe0878503018352613e18848351613962565b93509184019190840190600101613ddd565b50919695505050505050565b6000602080830181845280855180835260408601915060408482028701019250838701855b82811015613ea7577fffffffffffffffffffffffffffffffffffffffffffffffffffffffffffffffc0888603018452613e958583516139ac565b94509285019290850190600101613e5b565b5092979650505050505050565b610b40810181836000805b600a811015613f3c57825180518552602080820151818701855b6006811015613ef957825160ff1682529183019190830190600101613ed9565b505050604082015173ffffffffffffffffffffffffffffffffffffffff1660e0870152606090910151610100860152610120909401939290920191600101613ebf565b5050505092915050565b6020808252825182820181905260009190848201906040850190845b81811015613dbe57835183529284019291840191600101613f62565b901515815260200190565b60006020825261295f6020830184613962565b60208082526028908201527f41617665676f7463686946616365743a205f746f6b656e496420646f6573206e60408201527f6f74206578697374000000000000000000000000000000000000000000000000606082015260800190565b60208082526027908201527f4552433732313a205472616e736665722072656a65637465642f6661696c656460408201527f206279205f746f00000000000000000000000000000000000000000000000000606082015260800190565b60208082526022908201527f4c69624469616d6f6e643a204d75737420626520636f6e7472616374206f776e60408201527f6572000000000000000000000000000000000000000000000000000000000000606082015260800190565b60208082526025908201527f41617665676f7463686946616365743a20506f7274616c206973206e6f74206360408201527f6c6f736564000000000000000000000000000000000000000000000000000000606082015260800190565b6020808252818101527f41617665676f7463686946616365743a20506f7274616c206e6f74206f70656e604082015260600190565b6020808252601a908201527f4552433732313a20746f6b656e496420697320696e76616c6964000000000000604082015260600190565b60208082526022908201527f45523732313a2043616e2774207472616e7366657220746f203020616464726560408201527f7373000000000000000000000000000000000000000000000000000000000000606082015260800190565b6020808252602f908201527f4552433732313a20496e76616c696420746f6b656e4964206f722063616e277460408201527f206265207472616e736665727265640000000000000000000000000000000000606082015260800190565b60208082526029908201527f4552433732313a204e6f74206f776e6572206f7220617070726f76656420746f60408201527f207472616e736665720000000000000000000000000000000000000000000000606082015260800190565b6020808252602b908201527f4552433732313a205f66726f6d206973206e6f74206f776e65722c207472616e60408201527f73666572206661696c6564000000000000000000000000000000000000000000606082015260800190565b60208082526049908201527f41617665676f7463686946616365743a204f6e6c792061617665676f7463686960408201527f206f776e65722063616e20636c61696d2061617665676f746368692066726f6d60608201527f206120706f7274616c0000000000000000000000000000000000000000000000608082015260a00190565b60208082526038908201527f41617665676f7463686946616365743a204f6e6c792061617665676f7463686960408201527f206f776e65722063616e206f70656e206120706f7274616c0000000000000000606082015260800190565b60208082526037908201527f41617665676f7463686946616365743a204f6e6c792061617665676f7463686960408201527f206f776e65722063616e2073657420746865206e616d65000000000000000000606082015260800190565b60208082526027908201527f4552433732313a204e6f74206f776e6572206f72206f70657261746f72206f6660408201527f20746f6b656e2e00000000000000000000000000000000000000000000000000606082015260800190565b6020808252602b908201527f41617665676f746368694e46543a20446f6573206e6f74206861766520746f6b60408201527f656e20617420696e646578000000000000000000000000000000000000000000606082015260800190565b60208082526026908201527f41617665676f746368693a205f636f6c6c61746572616c20646f6573206e6f7460408201527f2065786973740000000000000000000000000000000000000000000000000000606082015260800190565b6020808252603a908201527f41617665676f7463686946616365743a205f6e616d652063616e27742062652060408201527f67726561746572207468616e2032352063686172616374657273000000000000606082015260800190565b60208082526035908201527f41617665676f7463686946616365743a205f7374616b65416d6f756e74206c6560408201527f7373207468616e206d696e696d756d207374616b650000000000000000000000606082015260800190565b6020808252602d908201527f41617665676f7463686946616365743a2041617665676f74636869206e616d6560408201527f207573656420616c726561647900000000000000000000000000000000000000606082015260800190565b60208082526025908201527f41617665676f7463686946616365743a205f6e616d652063616e27742062652060408201527f656d707479000000000000000000000000000000000000000000000000000000606082015260800190565b60208082526026908201527f41617665676f746368694e46543a4f776e65722063616e27742062652061646460408201527f7265737328300000000000000000000000000000000000000000000000000000606082015260800190565b6020808252602c908201527f41617665676f746368694e46543a204e6f7420656e6f7567682047485354207460408201527f6f2062757920706f7274616c0000000000000000000000000000000000000000606082015260800190565b60006020825261295f60208301846139ac565b60405181810167ffffffffffffffff811182821017156147a157fe5b604052919050565b60005b838110156147c45781810151838201526020016147ac565b83811115610de75750506000910152565b801515811461182657600080fd5b60ff8116811461182657600080fdfe4c696245524332303a20455243323020746f6b656e206164647265737320686173206e6f20636f64654c696245524332303a207472616e73666572206f72207472616e7366657246726f6d2072657475726e65642066616c73654c696245524332303a207472616e73666572206f72207472616e7366657246726f6d2072657665727465644c69625376673a205356472074797065206f7220696420646f6573206e6f74206578697374a26469706673582212204bfec2189b8c7393fc63df3bb23a8012c0fa9f9df3ca2c9d14ca27bd5e3a15cf64736f6c63430007040033",
  "linkReferences": {},
  "deployedLinkReferences": {}
}