{
  "_format": "hh-sol-artifact-1",
  "contractName": "MyFacet1",
  "sourceName": "contracts/test/MyFacet.sol",
  "abi": [
    {
      "inputs": [
        {
          "internalType": "address",
          "name": "_account",
          "type": "address"
        }
      ],
      "name": "balanceOf",
      "outputs": [
        {
          "internalType": "uint256",
          "name": "balance_",
          "type": "uint256"
        }
      ],
      "stateMutability": "view",
      "type": "function"
    },
    {
      "inputs": [
        {
          "internalType": "uint256",
          "name": "_value",
          "type": "uint256"
        }
      ],
      "name": "burn",
      "outputs": [],
      "stateMutability": "nonpayable",
      "type": "function"
    },
    {
      "inputs": [],
      "name": "getName",
      "outputs": [
        {
          "internalType": "string",
          "name": "name_",
          "type": "string"
        }
      ],
      "stateMutability": "view",
      "type": "function"
    }
  ],
  "bytecode": "0x608060405234801561001057600080fd5b5061036f806100206000396000f3fe608060405234801561001057600080fd5b50600436106100415760003560e01c806317d7de7c1461004657806342966c68146100c357806370a08231146100e2575b600080fd5b61004e610127565b6040805160208082528351818301528351919283929083019185019080838360005b83811015610088578181015183820152602001610070565b50505050905090810190601f1680156100b55780820380516001836020036101000a031916815260200191505b509250505060405180910390f35b6100e0600480360360208110156100d957600080fd5b5035610138565b005b610115600480360360208110156100f857600080fd5b503573ffffffffffffffffffffffffffffffffffffffff16610148565b60408051918252519081900360200190f35b60606101336000610170565b905090565b61014460008083610229565b5050565b73ffffffffffffffffffffffffffffffffffffffff1660009081526001602052604090205490565b6103ed81018054604080516020601f60027fffffffffffffffffffffffffffffffffffffffffffffffffffffffffffffffff61010060018816150201909516949094049384018190048102820181019092528281526060939092909183018282801561021d5780601f106101f25761010080835404028352916020019161021d565b820191906000526020600020905b81548152906001019060200180831161020057829003601f168201915b50505050509050919050565b33600090815260018401602052604081205482811015610294576040517f08c379a00000000000000000000000000000000000000000000000000000000081526004018080602001828103825260288152602001806103126028913960400191505060405180910390fd5b3360008181526001870160209081526040808320878603905573ffffffffffffffffffffffffffffffffffffffff881680845292819020805488019055805187815290519293927fddf252ad1be2c89b69c2b068fc378daa952ba7f163c4a11628f55a4df523b3ef929181900390910190a350600194935050505056fe4c696245524332303a204e6f7420656e6f7567682062616c616e636520746f207472616e73666572a2646970667358221220e2103d3eb10618631915b3d602322ebdc094ac4e6a833294d5b9eeb61047ec2c64736f6c63430007040033",
  "linkReferences": {},
  "deployedLinkReferences": {}
}