{
  "_format": "hh-sol-artifact-1",
  "contractName": "GHSTFacet",
  "sourceName": "contracts/GHST/facets/GHSTFacet.sol",
  "abi": [
    {
      "anonymous": false,
      "inputs": [
        {
          "indexed": true,
          "internalType": "address",
          "name": "_owner",
          "type": "address"
        },
        {
          "indexed": true,
          "internalType": "address",
          "name": "_spender",
          "type": "address"
        },
        {
          "indexed": false,
          "internalType": "uint256",
          "name": "_value",
          "type": "uint256"
        }
      ],
      "name": "Approval",
      "type": "event"
    },
    {
      "anonymous": false,
      "inputs": [
        {
          "indexed": true,
          "internalType": "address",
          "name": "_from",
          "type": "address"
        },
        {
          "indexed": true,
          "internalType": "address",
          "name": "_to",
          "type": "address"
        },
        {
          "indexed": false,
          "internalType": "uint256",
          "name": "_value",
          "type": "uint256"
        }
      ],
      "name": "Transfer",
      "type": "event"
    },
    {
      "inputs": [
        {
          "internalType": "address",
          "name": "_contract",
          "type": "address"
        }
      ],
      "name": "addApprovedContract",
      "outputs": [],
      "stateMutability": "nonpayable",
      "type": "function"
    },
    {
      "inputs": [
        {
          "internalType": "address",
          "name": "_owner",
          "type": "address"
        },
        {
          "internalType": "address",
          "name": "_spender",
          "type": "address"
        }
      ],
      "name": "allowance",
      "outputs": [
        {
          "internalType": "uint256",
          "name": "remaining_",
          "type": "uint256"
        }
      ],
      "stateMutability": "view",
      "type": "function"
    },
    {
      "inputs": [
        {
          "internalType": "address",
          "name": "_spender",
          "type": "address"
        },
        {
          "internalType": "uint256",
          "name": "_value",
          "type": "uint256"
        }
      ],
      "name": "approve",
      "outputs": [
        {
          "internalType": "bool",
          "name": "success",
          "type": "bool"
        }
      ],
      "stateMutability": "nonpayable",
      "type": "function"
    },
    {
      "inputs": [],
      "name": "approvedContracts",
      "outputs": [
        {
          "internalType": "address[]",
          "name": "contracts_",
          "type": "address[]"
        }
      ],
      "stateMutability": "view",
      "type": "function"
    },
    {
      "inputs": [
        {
          "internalType": "address",
          "name": "_owner",
          "type": "address"
        }
      ],
      "name": "balanceOf",
      "outputs": [
        {
          "internalType": "uint256",
          "name": "balance",
          "type": "uint256"
        }
      ],
      "stateMutability": "view",
      "type": "function"
    },
    {
      "inputs": [],
      "name": "decimals",
      "outputs": [
        {
          "internalType": "uint8",
          "name": "",
          "type": "uint8"
        }
      ],
      "stateMutability": "pure",
      "type": "function"
    },
    {
      "inputs": [
        {
          "internalType": "address",
          "name": "_spender",
          "type": "address"
        },
        {
          "internalType": "uint256",
          "name": "_value",
          "type": "uint256"
        }
      ],
      "name": "decreaseAllowance",
      "outputs": [
        {
          "internalType": "bool",
          "name": "success",
          "type": "bool"
        }
      ],
      "stateMutability": "nonpayable",
      "type": "function"
    },
    {
      "inputs": [
        {
          "internalType": "address",
          "name": "_spender",
          "type": "address"
        },
        {
          "internalType": "uint256",
          "name": "_value",
          "type": "uint256"
        }
      ],
      "name": "increaseAllowance",
      "outputs": [
        {
          "internalType": "bool",
          "name": "success",
          "type": "bool"
        }
      ],
      "stateMutability": "nonpayable",
      "type": "function"
    },
    {
      "inputs": [],
      "name": "mint",
      "outputs": [],
      "stateMutability": "nonpayable",
      "type": "function"
    },
    {
      "inputs": [],
      "name": "name",
      "outputs": [
        {
          "internalType": "string",
          "name": "",
          "type": "string"
        }
      ],
      "stateMutability": "pure",
      "type": "function"
    },
    {
      "inputs": [
        {
          "internalType": "address",
          "name": "_contract",
          "type": "address"
        }
      ],
      "name": "removeApprovedContract",
      "outputs": [],
      "stateMutability": "nonpayable",
      "type": "function"
    },
    {
      "inputs": [],
      "name": "symbol",
      "outputs": [
        {
          "internalType": "string",
          "name": "",
          "type": "string"
        }
      ],
      "stateMutability": "pure",
      "type": "function"
    },
    {
      "inputs": [],
      "name": "totalSupply",
      "outputs": [
        {
          "internalType": "uint256",
          "name": "",
          "type": "uint256"
        }
      ],
      "stateMutability": "view",
      "type": "function"
    },
    {
      "inputs": [
        {
          "internalType": "address",
          "name": "_to",
          "type": "address"
        },
        {
          "internalType": "uint256",
          "name": "_value",
          "type": "uint256"
        }
      ],
      "name": "transfer",
      "outputs": [
        {
          "internalType": "bool",
          "name": "success",
          "type": "bool"
        }
      ],
      "stateMutability": "nonpayable",
      "type": "function"
    },
    {
      "inputs": [
        {
          "internalType": "address",
          "name": "_from",
          "type": "address"
        },
        {
          "internalType": "address",
          "name": "_to",
          "type": "address"
        },
        {
          "internalType": "uint256",
          "name": "_value",
          "type": "uint256"
        }
      ],
      "name": "transferFrom",
      "outputs": [
        {
          "internalType": "bool",
          "name": "success",
          "type": "bool"
        }
      ],
      "stateMutability": "nonpayable",
      "type": "function"
    }
  ],
  "bytecode": "0x608060405234801561001057600080fd5b5061108b806100206000396000f3fe608060405234801561001057600080fd5b50600436106100f55760003560e01c80633950935111610097578063a457c2d711610066578063a457c2d7146101cb578063a9059cbb146101de578063dce86003146101f1578063dd62ed3e14610206576100f5565b8063395093511461019257806370a08231146101a557806395d89b41146100fa5780639eea2279146101b8576100f5565b8063135171be116100d3578063135171be1461014257806318160ddd1461015557806323b872dd1461016a578063313ce5671461017d576100f5565b806306fdde03146100fa578063095ea7b3146101185780631249c58b14610138575b600080fd5b610102610219565b60405161010f9190610d68565b60405180910390f35b61012b610126366004610cda565b610250565b60405161010f9190610d5d565b6101406102c5565b005b610140610150366004610c4c565b610375565b61015d610464565b60405161010f919061103e565b61012b610178366004610c9f565b610491565b610185610699565b60405161010f9190611047565b61012b6101a0366004610cda565b61069e565b61015d6101b3366004610c4c565b61076f565b6101406101c6366004610c4c565b610797565b61012b6101d9366004610cda565b610962565b61012b6101ec366004610cda565b610a47565b6101f9610afb565b60405161010f9190610d03565b61015d610214366004610c6d565b610b6d565b60408051808201909152600481527f4748535400000000000000000000000000000000000000000000000000000000602082015290565b3360008181526020818152604080832073ffffffffffffffffffffffffffffffffffffffff8716808552925280832085905551919290917f8c5be1e5ebec7d5bd14f71427d1e84f3dd0314c0f7b2291e5b200ac8c7c3b925906102b490869061103e565b60405180910390a350600192915050565b33600081815260016020526040808220805469021e19e0c9bab24000009081019091556103ec80546bffffffffffffffffffffffff74010000000000000000000000000000000000000000808304821685019091160273ffffffffffffffffffffffffffffffffffffffff919091161790559051909291907fddf252ad1be2c89b69c2b068fc378daa952ba7f163c4a11628f55a4df523b3ef9061036a90859061103e565b60405180910390a350565b61037d610ba3565b73ffffffffffffffffffffffffffffffffffffffff8116600090815260036020526040902054156103e3576040517f08c379a00000000000000000000000000000000000000000000000000000000081526004016103da90610f84565b60405180910390fd5b600280546001810182557f405787fa12a823e0f2b7631cc41b3ba8828b3321ca811111fa75cd3aa3bb5ace01805473ffffffffffffffffffffffffffffffffffffffff9093167fffffffffffffffffffffffff0000000000000000000000000000000000000000909316831790555460009182526003602052604090912055565b6103ec547401000000000000000000000000000000000000000090046bffffffffffffffffffffffff1690565b73ffffffffffffffffffffffffffffffffffffffff831660008181526001602052604081205490913314806104d457503360009081526003602052604090205415155b156104de576105e1565b73ffffffffffffffffffffffffffffffffffffffff851660009081526020818152604080832033845290915290205483811015610547576040517f08c379a00000000000000000000000000000000000000000000000000000000081526004016103da90610ef0565b7fffffffffffffffffffffffffffffffffffffffffffffffffffffffffffffffff81146105df5773ffffffffffffffffffffffffffffffffffffffff8616600081815260208181526040808320338085529252918290208785039081905591519092917f8c5be1e5ebec7d5bd14f71427d1e84f3dd0314c0f7b2291e5b200ac8c7c3b925916105d6919061103e565b60405180910390a35b505b8281101561061b576040517f08c379a00000000000000000000000000000000000000000000000000000000081526004016103da90610e93565b73ffffffffffffffffffffffffffffffffffffffff80861660008181526001602052604080822087860390559287168082529083902080548701905591517fddf252ad1be2c89b69c2b068fc378daa952ba7f163c4a11628f55a4df523b3ef9061068690879061103e565b60405180910390a3506001949350505050565b601290565b3360009081526020818152604080832073ffffffffffffffffffffffffffffffffffffffff861684529091528120548281018181101561070a576040517f08c379a00000000000000000000000000000000000000000000000000000000081526004016103da90610fe1565b3360008181526020818152604080832073ffffffffffffffffffffffffffffffffffffffff8a1680855292529182902084905590519091907f8c5be1e5ebec7d5bd14f71427d1e84f3dd0314c0f7b2291e5b200ac8c7c3b9259061068690859061103e565b73ffffffffffffffffffffffffffffffffffffffff1660009081526001602052604090205490565b61079f610ba3565b73ffffffffffffffffffffffffffffffffffffffff8116600090815260036020526040902054806107fc576040517f08c379a00000000000000000000000000000000000000000000000000000000081526004016103da90610f27565b6002548181146108d257600080600201600183038154811061081a57fe5b6000918252602090912001546002805473ffffffffffffffffffffffffffffffffffffffff909216925082917fffffffffffffffffffffffffffffffffffffffffffffffffffffffffffffffff860190811061087257fe5b600091825260208083209190910180547fffffffffffffffffffffffff00000000000000000000000000000000000000001673ffffffffffffffffffffffffffffffffffffffff9485161790559290911681526003909152604090208290555b60028054806108dd57fe5b6000828152602080822083017fffffffffffffffffffffffffffffffffffffffffffffffffffffffffffffffff90810180547fffffffffffffffffffffffff000000000000000000000000000000000000000016905590920190925573ffffffffffffffffffffffffffffffffffffffff949094168152600390935250506040812055565b3360009081526020818152604080832073ffffffffffffffffffffffffffffffffffffffff86168452909152812054828110156109cb576040517f08c379a00000000000000000000000000000000000000000000000000000000081526004016103da90610e36565b3360008181526020818152604080832073ffffffffffffffffffffffffffffffffffffffff8916808552925291829020938690039384905590519091907f8c5be1e5ebec7d5bd14f71427d1e84f3dd0314c0f7b2291e5b200ac8c7c3b92590610a3590859061103e565b60405180910390a35060019392505050565b3360009081526001602052604081205482811015610a91576040517f08c379a00000000000000000000000000000000000000000000000000000000081526004016103da90610e93565b33600081815260016020526040808220868503905573ffffffffffffffffffffffffffffffffffffffff871680835291819020805487019055519091907fddf252ad1be2c89b69c2b068fc378daa952ba7f163c4a11628f55a4df523b3ef90610a3590879061103e565b60606000600201805480602002602001604051908101604052809291908181526020018280548015610b6357602002820191906000526020600020905b815473ffffffffffffffffffffffffffffffffffffffff168152600190910190602001808311610b38575b5050505050905090565b73ffffffffffffffffffffffffffffffffffffffff91821660009081526020818152604080832093909416825291909152205490565b610bab610bff565b6004015473ffffffffffffffffffffffffffffffffffffffff163314610bfd576040517f08c379a00000000000000000000000000000000000000000000000000000000081526004016103da90610dd9565b565b7fc8fcad8db84d3cc18b4c41d551ea0ee66dd599cde068d998e57d5e09332c131c90565b803573ffffffffffffffffffffffffffffffffffffffff81168114610c4757600080fd5b919050565b600060208284031215610c5d578081fd5b610c6682610c23565b9392505050565b60008060408385031215610c7f578081fd5b610c8883610c23565b9150610c9660208401610c23565b90509250929050565b600080600060608486031215610cb3578081fd5b610cbc84610c23565b9250610cca60208501610c23565b9150604084013590509250925092565b60008060408385031215610cec578182fd5b610cf583610c23565b946020939093013593505050565b6020808252825182820181905260009190848201906040850190845b81811015610d5157835173ffffffffffffffffffffffffffffffffffffffff1683529284019291840191600101610d1f565b50909695505050505050565b901515815260200190565b6000602080835283518082850152825b81811015610d9457858101830151858201604001528201610d78565b81811115610da55783604083870101525b50601f017fffffffffffffffffffffffffffffffffffffffffffffffffffffffffffffffe016929092016040019392505050565b60208082526022908201527f4c69624469616d6f6e643a204d75737420626520636f6e7472616374206f776e60408201527f6572000000000000000000000000000000000000000000000000000000000000606082015260800190565b60208082526026908201527f4748535446616365743a20416c6c6f77616e636520646563726561736564206260408201527f656c6f7720300000000000000000000000000000000000000000000000000000606082015260800190565b60208082526021908201527f474853543a204e6f7420656e6f756768204748535420746f207472616e73666560408201527f7200000000000000000000000000000000000000000000000000000000000000606082015260800190565b6020808252601d908201527f474853543a204e6f7420616c6c6f77656420746f207472616e73666572000000604082015260600190565b6020808252602b908201527f4748535446616365743a20417070726f76656420636f6e747261637420646f6560408201527f73206e6f74206578697374000000000000000000000000000000000000000000606082015260800190565b6020808252602b908201527f4748535446616365743a20417070726f76656420636f6e747261637420616c7260408201527f6561647920657869737473000000000000000000000000000000000000000000606082015260800190565b60208082526028908201527f4748535446616365743a20416c6c6f77616e636520696e637265617365206f7660408201527f6572666c6f776564000000000000000000000000000000000000000000000000606082015260800190565b90815260200190565b60ff9190911681526020019056fea2646970667358221220ff45077e5b3a00cc40c6b6939491b6bbe7e81ad68ac98543e223fa2df8a2985e64736f6c63430007040033",
  "linkReferences": {},
  "deployedLinkReferences": {}
}